:100000000C94F56F0C9426700C9426700C9426704A
:100010000C9426700C9426700C9426700C94267008
:100020000C9426700C9426700C9426700C942670F8
:100030000C9426700D94A7430C9426700C94267093
:100040000C9426700D94711B0C9426700C942670E1
:100050000C9426700C9426700D94522F0D94966378
:100060000C9426700D940B530C9426700C942670EF
:100070000C9426700C9426700C9426700C942670A8
:100080000C9426700C9426700C9426700C94267098
:100090000D94E2520C9426700C9426700C942670E9
:1000A0000C9426700C9426700C9426700C94267078
:1000B0000C9426700C9426700C9426700C94267068
:1000C0000C9426700C9426700C9426700C94267058
:1000D0000C9426700C9426700C9470F60C94267078
:1000E0000C942670390139012701270127011901D4
:1000F00019011901C501FD00FD00FD005CF819FCA6
:1001000019FC19FC19FC19FC19FC19FC19FC19FC47
:1001100019FC19FC19FC19FC19FC19FC19FCFBFB56
:1001200005FA19FCB8F8EDF88CFB9AFA69FB40FB6C
:10013000AEFBD1FB19FC19FCC4FA19FC19FC19FC23
:100140006AFA5FF92DF919FCCDF981F826FBC10196
:10015000B101910133010F014301C701590171013F
:1001600067016F013501D5018B0157017D0109013F
:100170005B013F015F013F01DF013F018301FF00A0
:100180002901AB0155011B019F01ED01ED013D016D
:100190003B01F3008D015101B301DB0185019301A6
:1001A00087017F01F1004701F301B3014B014901D0
:1001B000A301B9013701EB0163011501DD01CD0197
:1001C000BF01A701AF01EB0045019B01C301DD01A8
:1001D00097017B01E7010D94FE620D94AD090D942A
:1001E000412C0D94B8610D948B610D94D33D0D9409
:1001F00022130D94A85A0D94F22D0D94036B0D94B7
:10020000562B0D94272E0D94783D0D9486370D9422
:1002100062160D9447070D940F2B0D94DB2B0D9454
:10022000FE040D94F8120D9487080D94D0620D947D
:1002300099050D94FC6A0D94D13C0D940E2B0D94F0
:1002400003390D94C8080D948E6F0D94B9190D944F
:10025000F56A0D941C3C0D94E9080D94BE140D94A0
:1002600017370D947A2E0D94F3040D9439060D94DE
:10027000B7620D94EE6A0D949C610D9499610D9492
:100280002A2B0D94BE170D940B050D9408630D9445
:10029000BC610D94CA610D94C6610D9482380D94B1
:1002A0009D370D9495610D94DE2B0D948E3C0D942D
:1002B00010070D94E5040D948E070D9419090D9403
:1002C0004D2B0D94BF090D94C6620D9471050D94CC
:1002D000E6050D9457050D942E3B0D945E0C0D9480
:1002E000F9050D94D3050D9429180D94AB140D94B4
:1002F00020080D94A3190D9435630D943A070D94BD
:10030000B2610D94CF370D94532B0D94A4610D94CD
:10031000AE610D94630C0D94C0060D948F610D9425
:10032000CD590D94D7040D94AA610D9426140D9403
:100330002B630D9467370D9417630D94FE370D945E
:10034000143D0D94830C0D94CE610D947D390D9464
:10035000EA620D946E0F0D943E3C0D942C0C0D949E
:10036000F4620D94D2040D94D3610D94881A0D9407
:1003700008370D94B2620D94B75C0D94A4040D94EB
:10038000E2620D94B7040D9421630D94096B0D94F2
:1003900048050D943F710D9427370D94DA620D9442
:1003A000611A0D94B2170D94A93D0D94B3060D94E6
:1003B000BA120D94A30F0D94A0610D9449630D948E
:1003C000502B0D94102B0D94B0070D9490380D9474
:1003D0003F630D94A9140D94BC620D94663D0D9479
:1003E0007D130D94083C0D94C0614E414E494E4919
:1003F0005459494E46CDCCCC3D0AD7233C17B7D1F2
:100400003877CC2B329595E6241FB14F0A00002097
:10041000410000C84200401C4620BCBE4CCA1B0E16
:100420005AAEC59D7400407A10F35A00A0724E185F
:10043000090010A5D4E80000E87648170000E40B96
:1004400054020000CA9A3B000000E1F5050000805C
:10045000969800000040420F000000A086010000B6
:1004600000102700000000E8030000000064000006
:100470000000000A00000000000100000000002C45
:1004800076D888DC674F0823DFC1DFAE59E1B1B70A
:1004900096E5E3E453C63AE651997696E8E6C284D7
:1004A00026EB898C9B62ED407C6FFCEFBC9C9F40EF
:1004B000F2BAA56FA5F490055A2AF75C936B6CF914
:1004C000676DC11BFCE0E40D47FEF520E6B500D0EA
:1004D000ED902E0300943577050080841E080000FF
:1004E000204E0A000000C80C333333330F986E12CD
:1004F000831141EF8D2114893BE65516CFFEE6DBD3
:1005000018D1844B381BF77C1D901DA4BBE424201C
:100510003284725E228100C9F124ECA1E53D2743BB
:100520004F4D4D554E49434154494F4E0044525949
:1005300052554E004552524F525300494E464F00BD
:100540004543484F00486F6D6520585920666972D1
:1005500073740A00486F6D6520585920666972737C
:100560007400205A3A200020593A20004265642045
:10057000583A20004D65736820706F696E7420636F
:10058000616E6E6F74206265207265736F6C766544
:10059000640A00456E642066696C65206C6973743A
:1005A0000A00426567696E2066696C65206C697334
:1005B000740A0043757272656E742066696C653AE0
:1005C000200040053B0534052D051F056F666600BC
:1005D00044454255473A004B494C4C45442E200077
:1005E0004D3131332053006F6B00706F776572208F
:1005F0006F66662E2E2E002C20002C20002F2F2020
:1006000000205400205200416363656C6572617480
:10061000696F6E3A2050005741524E494E47212093
:100620004C6F77205A204A65726B206D6179206C7F
:1006300065616420746F20756E77616E74656420E7
:100640007061757365732E0A0020466C6F773A20CF
:100650000000013A3B3923FFFFFFFF3D3E3C22FFF4
:10066000FFFFFF17181604FFFFFFFFFFFF1C08091D
:10067000FFFFFF40413FFFFFFF373836FFFFFF0816
:10068000440A074350726F6265205A204F666673B2
:1006900065743A200043290A0061626C6564202871
:1006A0006D696E2074656D702000436F6C64206509
:1006B000787472756465732061726520004E6F20D6
:1006C00063617365206C696768740A004D657368BF
:1006D00020706F696E742063616E6E6F7420626546
:1006E000207265736F6C7665640A004D3432312078
:1006F000696E636F727265637420706172616D659B
:100700007465722075736167650A00454550524FE4
:100710004D204F4B0A003A200050726F6265205AFC
:10072000204F6666736574003F5A206F7574206FA2
:10073000662072616E676520282D323020746F202C
:100740003230290A00496E76616C696420657874DC
:1007500072756465720A00C7EBCFF2BCB7B3F6C618
:10076000F7D7E9BCFED6D0B2E5C8EB504C41C1CFBB
:10077000CBBF2C20C8BBBAF3B5C8B4FDC5E7CDB715
:10078000BCD3C8C8CDEAB3C92E000000496E73655A
:10079000727420504C4120616E642077616974202E
:1007A000666F7220746865206E6F7A7A6C6520744B
:1007B0006F20686561742075700000000000000003
:1007C00000496E736572746520504C412079206534
:1007D0007370657265206120717565206C6120629F
:1007E0006F7175696C6C612073652063616C6965FC
:1007F0006E7465000000C5E7CDB7CEC2B6C8000074
:100800004E6F7A7A6C6500000000426F7175696CFA
:100810006C6100004D3130342053323130004731AB
:10082000205A31303020463530300047393100B55C
:10083000DA37B2BD20C5E7CDB7D7E9BCFED5EFB6F4
:10084000CF000000000000000000000000000037A2
:100850002E204E6F7A7A6C6520646961676E6F73C3
:10086000746963730000000000000000000000379E
:100870002E20446961676EA8AE737469636F20644B
:1008800065206C6120626F7175696C6C610000CECF
:10089000DEB7A8B6C1C8A1CEC2B6C821000000000C
:1008A0000000000000000000000000000054656D22
:1008B00070657261747572652063616E2774206261
:1008C00065207265616421000000004572726F72DC
:1008D0002064652074656D70657261747572610065
:1008E000000000000000000000C7EBBCECB2E9C54E
:1008F000E7CDB7D7E9BCFEBCB0BDD3BFDA2E000050
:100900000000000000000000000000004368656374
:100910006B20746865206E6F7A7A6C6520616E64F6
:10092000206361626C65000000000000000000436D
:100930006F6D707275656265206C6120626F717594
:10094000696C6C61207920656C206361626C650064
:100950000000B5DA36B2BD205ACFDECEBBBFAAB991
:10096000D8D5EFB6CF000000000000000000000066
:100970000000000000362E205A20656E6473746FEC
:100980007020646961676E6F736973000000000016
:100990000000000000000000362E205A206469612B
:1009A000676EA8AE737469636F2064652066696EB4
:1009B000616C697A616369A8AE6E00C6BDCCA8BDE2
:1009C000ABCFF2CFC2D2C6B6AFD6C15ACFDECEBB06
:1009D000BFAAB9D8B4A62E20C7EBB9DBB2ECC6BD0E
:1009E000CCA8CFF2CFC2D2C6B6AFD6C100005468F1
:1009F00065206265642077696C6C206D6F76652078
:100A0000646F776E20746F20746865205A20656E5D
:100A10006473746F7020616E642073746F70000073
:100A2000004C612063616D61207365206D6F766598
:100A300072A8A2206861636961206162616A6F20A7
:100A4000686173746120656C20746F7065205A2032
:100A500079000000CFDECEBBBFAAB9D8BAF3CAC7AF
:100A6000B7F1C1A2BCB4CDA3D6B92E0000000000DE
:100A70000000000000000000000000000000000076
:100A80000000000000000000000000000000000066
:100A9000696D6D6564696174656C792E20496620A5
:100AA000746865726520697320616E792061626E79
:100AB0006F726D616C6974792C20706C65617365FF
:100AC000207475726E206F66660000007365206486
:100AD0006574656E6472A8A220646520696E6D6598
:100AE000646961746F2E2053692068617920616C9C
:100AF00067756E6120616E6F6D616CA8AA612C00D4
:100B00000000000000000000C8E7D3D0D2ECB3A37F
:100B10002C20C7EBB9D8B1D5B4F2D3A1BBFA2C20A5
:100B2000BCECB2E95ACFDECEBBBFAAB9D8BACDC1B0
:100B3000ACCFDF2E000000000000000000000074B9
:100B40006865207072696E7465722C2063686563D5
:100B50006B20746865205A20656E6473746F702012
:100B6000616E64206361626C652E0000000000000D
:100B7000000000000000617061677565206C6120F5
:100B8000696D707265736F72612C2076657269662B
:100B90006971756520656C20746F7065205A2079C5
:100BA00020656C206361626C652E0000004732385E
:100BB000205A004D313230004D3231312053310056
:100BC000B5DA35B2BD205AB5E7BBFAD5EFB6CF00DE
:100BD000000000000000000000352E205A206D6F3C
:100BE000746F7220646961676E6F736973000000CF
:100BF0000000352E205A20646961676E6F73746936
:100C0000636F206D6F746F72000000C5E7CDB7BDD4
:100C1000ABCFC8CFF2C9CFD2C6B6AF3130636D2CDF
:100C200020D4D9CFF2CFC2D2C6B6AF35636D2E2055
:100C3000C7EBB9DBB2ECC6BDCCA8D2C6B6AF0000DC
:100C4000546865206E6F7A7A6C652077696C6C20C9
:100C50006D6F7665207570203130636D20616E6434
:100C6000207468656E20646F776E2035636D2E008A
:100C700000000000004C612063616D6120736520FD
:100C80006D6F766572A8A2206861636961206172E8
:100C90007269626120313020636D2079206C756546
:100CA000676F2068616369610000CAC7B7F1D5FD4D
:100CB000B3A32E2000000000000000000000000090
:100CC0000000000000000000000000000000000024
:100CD0000000000000000000000000000000000014
:100CE0000000000000004966207468657265206994
:100CF0007320616E792061626E6F726D616C6974D0
:100D0000792C20706C65617365207475726E206F2C
:100D1000666620746865207072696E746572000082
:100D200000006162616A6F203520636D2E20536977
:100D30002068617920616C67756E6120616E6F6DEE
:100D4000616CA8AA612C20617061677565206C6177
:100D500020696D707265736F72612C000000C8E7C6
:100D6000D3D0D2ECB3A32C20C7EBB9D8B1D5B4F211
:100D7000D3A1BBFA2C20BCECB2E95AB5E7BBFABA56
:100D8000CDC1ACCFDF2E000000000000000000004D
:100D9000636865636B20746865205A206D6F746F9B
:100DA0007220616E64206361626C652E0000000039
:100DB0000000000000000000000000000000000033
:100DC0000000636F6D70727565626520656C206DE3
:100DD0006F746F72205A207920656C206361626C99
:100DE000652E000000000000000000000000000070
:100DF000000000002020202020202020202000476C
:100E000031205A2D353000473931004731205A31D1
:100E10003030204635303000473931004D313231E5
:100E2000004D32313120533000B5DA34B2BD205993
:100E3000CFDECEBBBFAAB9D8D5EFB6CF0000000039
:100E4000000000000000000000000000342E2059C7
:100E500020656E6473746F7020646961676E6F7370
:100E60006973000000000000000000000000003472
:100E70002E205920646961676EA8AE737469636F30
:100E80002064652066696E616C697A616369A8AEE9
:100E90006E00C6BDCCA8BDABCFF2BAF3D2C6B6AF1A
:100EA000D6C159CFDECEBBBFAAB9D8B4A62E20C7B3
:100EB000EBB9DBB2ECC5E7CDB7CFF2BAF3D2C6B629
:100EC000AFD6C100000000546865206265642077D9
:100ED000696C6C206D6F7665206261636B776172FF
:100EE000647320746F20746865205920656E647384
:100EF000746F700000000000000000004C61206270
:100F00006F7175696C6C61207365206D6F766572A9
:100F1000A8A220686163696120617472A8A273202D
:100F2000686173746120656C20746F706520656EF4
:100F300000CFDECEBBBFAAB9D8BAF3CAC7B7F1C1DA
:100F4000A2BCB4CDA3D6B92E000000000000000062
:100F50000000000000000000000000000000000091
:100F6000000000000000616E642073746F702069DF
:100F70006D6D6564696174656C792E2049662074B5
:100F80006865726520697320616E792061626E6F99
:100F9000726D616C6974792C00000059207920739E
:100FA0006520646574656E6472A8A220696E6D65C3
:100FB00064696174616D656E74652E205369206883
:100FC000617920616C67756E6100000000000000AF
:100FD000C8E7D3D0D2ECB3A32C20C7EBB9D8B1D596
:100FE000B4F2D3A1BBFA2C20BCECB2E959CFDECECF
:100FF000BBBFAAB9D8BACDC1ACCFDF2E000000006C
:10100000000000000000706C6561736520747572EB
:101010006E206F666620746865207072696E7465F4
:101020007220616E6420636865636B20746865205C
:101030005920656E6473746F70000000616E6F6D8F
:10104000616CA8AA612C20617061677565206C6174
:1010500020696D707265736F726120792076657298
:1010600069666971756520656C20746F7065000034
:101070000000C8E7CEDED2ECB3A32C20B5E3BBF76B
:10108000CFC2D2BBB2BDBCCCD0F82E000000616E86
:1010900064206361626C652E0000000000000000A7
:1010A0000000000000000000000066696E616C2016
:1010B0007920656C206361626C652E000000000081
:1010C0000000000000004732382059004D31323016
:1010D000004D32313120533100B5DA33B2BD2059E1
:1010E000B5E7BBFAD5EFB6CF000000000000000066
:1010F0000000332E2059206D6F746F722064696177
:10110000676E6F7369730000000000332E20592052
:10111000646961676E6F737469636F206D6F746F5C
:1011200072000000C6BDCCA8BDABCFC8CFF2BAF3E9
:10113000D2C6B6AF35636D2C20D4D9CFF2C7B0D2AA
:10114000C6B6AF35636D2E20C7EBB9DBB2ECC6BDBA
:10115000CCA800000000000054686520626564208F
:1011600077696C6C206D6F76652035636D206261E8
:10117000636B7761726420616E64207468656E20B1
:1011800035636D0000000000000000004C6120622B
:101190006F7175696C6C61207365206D6F76657217
:1011A000A8A2203520636D206861636961206164B5
:1011B000656C616E74652079206C7565676F0000E1
:1011C000D2C6B6AFCAC7B7F1D5FDB3A32E20000073
:1011D000000000000000000000000000000000000F
:1011E00000000000000000000000000000000000FF
:1011F000000000000000000000666F7277617264FA
:101200002E20496620746865726520697320616EBE
:10121000792061626E6F726D616C6974792C2070D7
:101220006C65617365207475726E206F6666000070
:1012300000003520636D206861636961206174720C
:10124000A8A2732E2053692068617920616C6775AC
:101250006E6120616E6F6D616CA8AA612C20617057
:1012600061677565206C6100000000C8E7D3D0D2CB
:10127000ECB3A32C20C7EBB9D8B1D5B4F2D3A1BB42
:10128000FA2C20BCECB2E959B5E7BBFABACDC1AC37
:10129000CFDF2E000000000000007468652070722F
:1012A000696E74657220616E6420636865636B208B
:1012B0007468652059206D6F746F7220616E6420B0
:1012C0006361626C652E000000696D707265736FFA
:1012D0007261207920636F6D70727565626520653B
:1012E0006C206D6F746F72205920656C2063616291
:1012F0006C652E0000000000473120593530004752
:10130000393100473120592D3530204631303030C9
:1013100000473931004D313231004D3231312053E7
:101320003000B5DA32B2BD2058CFDECEBBBFAAB98D
:10133000D8D5EFB6CF00000000000000000000008C
:101340000000000000312E205820656E6473746F19
:101350007020646961676E6F73697300000000003C
:101360000000000000000000312E20582064696158
:10137000676EA8AE737469636F2064652066696EDA
:10138000616C697A616369A8AE6E00C5E7CDB7BDCF
:10139000ABCFF2D7F3D2C6B6AFD6C158CFDECEBBF5
:1013A000BFAAB9D8B4A62E20C7EBB9DBB2ECC5E70B
:1013B000CDB7CFF2D7F3D2C6B6AFD6C1000000008A
:1013C00000000000546865206E6F7A7A6C652077A3
:1013D000696C6C206D6F766520746F207468652071
:1013E0006C65667420746F20746865205820656E83
:1013F0006473746F7000000000000000004C6120F6
:10140000626F7175696C6C61207365206D6F7665B4
:1014100072A8A2206861636961206C6120646572B2
:101420006563686120686173746120656C20746F06
:10143000706520580000CFDECEBBBFAAB9D8BAF382
:10144000CAC7B7F1C1A2BCB4CDA3D6B92E00000063
:10145000000000000000000000000000000000008C
:101460000000000000000000000000000000616EAD
:10147000642073746F7020696D6D65646961746553
:101480006C792E2049662074686572652069732026
:10149000616E792061626E6F726D616C6974792C16
:1014A0000000000000007920736520646574656E9B
:1014B0006472A8A220696E6D6564696174616D656E
:1014C0006E74652E2053692068617920616C6775A0
:1014D0006E6120616E6F6D616CA8AA612C00C8E717
:1014E000D3D0D2ECB3A32C20C7EBB9D8B1D5B4F28A
:1014F000D3A1BBFA2C20BCECB2E958CFDECEBBBFE7
:10150000AAB9D8BACDC1ACCFDF2E000000000000D0
:10151000000000000000706C6561736520747572D6
:101520006E206F666620746865207072696E7465DF
:101530007220616E6420636865636B207468652047
:101540005820656E6473746F700000000000617055
:1015500061677565206C6120696D707265736F726B
:101560006120792076657269666971756520656CA0
:1015700020746F70652058207920656C206361624B
:101580006C652E000000C8E7CEDED2ECB3A32C20A1
:10159000B5E3BBF7CFC2D2BBB2BDBCCCD0F82E00F6
:1015A0000000616E64206361626C652E00000000C3
:1015B000000000000000000000000000000020000B
:1015C000000000000000000000000000000000001B
:1015D00000000000000000000000473238205800E2
:1015E0004D313230004D32313120533100C5E7CD1D
:1015F000B7BDABCFC8CFF2D7F3D2C6B6AF35636DA8
:101600002C20D4D9CFF2D3D2D2C6B6AF35636D2E4B
:1016100020C7EBB9DBB2ECC5E7CDB7000000000096
:10162000000000546865206E6F7A7A6C65207769D7
:101630006C6C206D6F76652035636D20746F20743F
:101640006865206C65667420616E642035636D206A
:10165000746F207468650000004C6120626F7175C2
:10166000696C6C61207365206D6F766572A8A2202D
:101670003520636D2061206C6120697A7175696520
:101680007264612079203520636D2061000000D2F2
:10169000C6B6AFCAC7B7F1D5FDB3A32E2000000070
:1016A000000000000000000000000000000000003A
:1016B000000000000000000000000000000000002A
:1016C00000000000000000000072696768742E20AE
:1016D000496620746865726520697320616E79209F
:1016E00061626E6F726D616C6974792C20706C65CB
:1016F000617365207475726E206F6666000000006D
:101700000000006C6120646572656368612E20537F
:10171000692068617920616C67756E6120616E6F08
:101720006D616CA8AA612C20617061677565206C81
:101730006120696D707265736F72610000C8E7D3D4
:10174000D0D2ECB3A32C20C7EBB9D8B1D5B4F2D327
:10175000A1BBFA2C20BCECB2E958B5E7BBFABACD74
:10176000C1ACCFDF2E0000000000000000746865EF
:10177000207072696E74657220616E6420636865A2
:10178000636B207468652058206D6F746F722061E0
:101790006E64206361626C652E0000000079206336
:1017A0006F6D70727565626520656C206D6F746F0A
:1017B000722058207920656C206361626C656164D9
:1017C0006F2E0000000000000000000000473120E4
:1017D0005835300047393100473120582D353020F9
:1017E000463130303000473931004D313231004D13
:1017F00032313120533000B5DA31B2BD2058B5E76F
:10180000BBFAD5EFB6CF00000000000000000000DA
:1018100000312E2058206D6F746F722064696167EB
:101820006E6F736973000000000000312E20582095
:10183000646961676E6F737469636F206D6F746F35
:101840007200000000C7EBCAD6B6AFBDABC5E7CD8E
:10185000B7D2C6D6C1B4F2D3A1BBFAB5C4D6D0BCF8
:10186000E4CEBBD6C32C20BDABC6BDCCA8D2C6D659
:10187000C1D7EEB5D7B2BF2E0000000000000000B7
:10188000004D616E75616C6C79206D6F76652074AA
:101890006865206E6F7A7A6C6520746F2074686555
:1018A000206D6964646C65206F66207468652070C3
:1018B00072696E746572000000000000004D75656D
:1018C0007661206D616E75616C6D656E7465206CFE
:1018D0006120626F7175696C6C6120616C20636559
:1018E0006E74726F206465206C6120696D70726522
:1018F000736F72610000000000C8BBBAF3B5E3BBB0
:10190000F7BFAACABC2E00000000000000000000C3
:1019100000000000000000000000000000000000C7
:10192000000000000000616E64206D6F7665207419
:10193000686520706C6174666F726D20746F2074BE
:10194000686520626F74746F6D2E000000000000E7
:1019500000000079206D75657661206C6120706CE7
:10196000617461666F726D612061206C61207061CD
:1019700072746520696E666572696F722E00000070
:101980002000000000000000000000000000000037
:10199000000000000000000000000000000054688B
:1019A000656E20636C69636B206F6E205374617287
:1019B000742E000000000000000000004C756567F8
:1019C0006F206861676120636C696320656E2049E0
:1019D0006E69636961722E0000002020BFAACABC34
:1019E000000000002020426567696E00000020436F
:1019F0006F6D656E7A6172002020CDCBB3F600006A
:101A0000000020205175697400000000202044650A
:101A10006A61720000004D3834004572726F7220A6
:101A200077726974696E6720746F20454550524F14
:101A30004D210A00454550524F4D20646174617339
:101A4000697A65206572726F722E0A002053697A76
:101A5000653A2000496E6465783A2000B80B0000B2
:101A6000B80B00006400000010270000000048438D
:101A7000000002430000A0410000C841AE47BC4244
:101A8000AE47BC420000C8430000B4423A0A0020FE
:101A9000286D6D290020204D363033200020550060
:101AA0004C0046696C616D656E74206C6F61642FCB
:101AB000756E6C6F6164206C656E677468733A0A4A
:101AC0000020204D383531205A005A2D50726F6257
:101AD00065204F666673657400204400204900202D
:101AE000204D3330312050005049442073657474C8
:101AF000696E67733A0A00205A00204A0020204786
:101B000032392057204900205A0020204D343230ED
:101B10002053004175746F20426564204C657665E2
:101B20006C696E673A0A00205A0020590020204D47
:101B3000323036205800486F6D65206F66667365D9
:101B4000743A0A00204500205A002059002058000D
:101B500020540020530020204D32303520510020E9
:101B6000453C6D61785F655F6A65726B3E00205829
:101B70003C6D61785F785F6A65726B3E20593C6DA1
:101B800061785F795F6A65726B3E205A3C6D61785F
:101B90005F7A5F6A65726B3E00416476616E636571
:101BA000643A20513C6D696E5F7365676D656E7454
:101BB0005F74696D655F75733E20533C6D696E5F40
:101BC00066656564726174653E20543C6D696E5F44
:101BD00074726176656C5F66656564726174653E9A
:101BE0000020540020520020204D3230342050007C
:101BF000416363656C65726174696F6E2028756EF0
:101C00006974732F7332293A20503C7072696E7474
:101C10005F616363656C3E20523C72657472616300
:101C2000745F616363656C3E20543C7472617665D9
:101C30006C5F616363656C3E0A00204500205A00BA
:101C400020590020204D3230312058004D617869F4
:101C50006D756D20416363656C65726174696F6E4B
:101C60002028756E6974732F7332293A0A00204553
:101C700000205A0020590020204D323033205800D7
:101C80004D6178696D756D20666565647261746516
:101C9000732028756E6974732F73293A0A002045E2
:101CA00000205A0020590020204D3932205800537E
:101CB000746570732070657220756E69743A0A00DD
:101CC00020204D3230302044300A0020204D323068
:101CD000302044002044697361626C65640A0046E8
:101CE000696C616D656E742073657474696E677379
:101CF0003A002020473231202020203B0000000AFB
:101D00000B02090C0D0E080703040100000000007F
:101D100000000000000000000000000000000000C3
:101D20000000000000000000001211100000000080
:101D300000000000000000000000000000000000A3
:101D400000000000000000000000000000473238E2
:101D5000205820592046333030300D0A4731205961
:101D60003237300D0A4D313800554E4B4E4F574EDD
:101D7000004E4F2057494649204D4F44554C450091
:101D80002020506C616E6E657242756666657242A7
:101D9000797465733A20002046726565204D656D43
:101DA0006F72793A2000436F6D70696C65643A20F8
:101DB0004A756C20203920323032300A00207C20D5
:101DC000417574686F723A2028574545444F334433
:101DD00020506572726F6E290A00323032302D3019
:101DE000362D313500204C61737420557064617458
:101DF00065643A2000322E342E300A004D61726C38
:101E0000696E0020536F6674776172652052657346
:101E100065740A00205761746368646F67205265B7
:101E20007365740A002042726F776E206F7574209C
:101E300052657365740A002045787465726E616C32
:101E40002052657365740A00506F77657255700A89
:101E50000073746172740A006175746F25692E676E
:101E6000006572726F722077726974696E67207490
:101E70006F2066696C650A00205A3A0020593A00C2
:101E800020583A00656E6473746F707320686974CB
:101E90003A200057323039005732303300446F6EE9
:101EA0006520736176696E672066696C652E0A002D
:101EB0004D32390020746F6F206C6F6E672065782B
:101EC00074727573696F6E2070726576656E746575
:101ED000640A0020636F6C6420657874727573699E
:101EE0006F6E2070726576656E7465640A00627547
:101EF00073793A2070617573656420666F7220692A
:101F00006E7075740A00627573793A20706175732A
:101F1000656420666F7220757365720A006275735E
:101F2000793A2070726F63657373696E670A004B4C
:101F3000494C4C45442E20004B494C4C2063617564
:101F400073656420627920746F6F206D75636820FB
:101F5000696E6163746976652074696D65202D20F2
:101F600063757272656E7420636F6D6D616E643A35
:101F7000200076616C3A2000616464723A2000446B
:101F8000475553206B657920707265737365640AD9
:101F900000444755532053637265656E2049443AA7
:101FA00000534420696E6974206661696C0A0053AD
:101FB000442063617264206F6B0A005072696E7412
:101FC00065722068616C7465642E206B696C6C2886
:101FD000292063616C6C6564210A000000A0C000C8
:101FE0000000C1000000005555854255558542004E
:101FF000002041000000005761726E696E673A2050
:10200000486F6D696E672042756D7020446976690E
:10201000736F72203C20310A000202040000A040CD
:102020000000A0400000A04000009B4300009B4334
:102030000000CD43FFFFFF486F74656E6420746F2E
:102040006F20636F6C640A00496E7365727420665A
:10205000696C616D656E7420616E64207072657369
:102060007320627574746F6E20286F72204D31304A
:1020700038290A0020746F6F206C6F6E67206578B6
:1020800074727573696F6E2070726576656E7465B3
:10209000640A0020636F6C642065787472757369DC
:1020A0006F6E2070726576656E7465640A005452B6
:1020B00049474745524544006F70656E003A20001D
:1020C0007A5F6D696E00795F6D696E00785F6D692A
:1020D0006E005265706F7274696E6720656E64730E
:1020E000746F70207374617475730A00656E717516
:1020F000657565696E672022004B494C4C45442E3E
:10210000200053544F505045442E20005072696EA9
:102110007465722073746F707065642064756520D7
:10212000746F206572726F72732E20466978207406
:102130006865206572726F7220616E6420757365C8
:10214000204D39393920746F20726573746172744F
:102150002E202854656D70657261747572652069F2
:10216000732072657365742E205365742069742022
:1021700061667465722072657374617274696E67EA
:10218000290A004E6F20436865636B73756D207775
:10219000697468206C696E65206E756D6265722C5D
:1021A000204C617374204C696E653A20004E6F209C
:1021B000436865636B73756D2077697468206C691B
:1021C0006E65206E756D6265722C204C6173742093
:1021D0004C696E653A2000636865636B73756D20AA
:1021E0006D69736D617463682C204C617374204C4D
:1021F000696E653A20004C696E65204E756D6265AA
:1022000072206973206E6F74204C617374204C6966
:102210006E65204E756D6265722B312C204C61739A
:1022200074204C696E653A20004D313130004D33D9
:10223000310053442072656164206572726F720AC6
:1022400000446F6E65207072696E74696E672066F7
:10225000696C650A0020496E76616C696420657856
:1022600074727564657220000000A0C0000000C197
:102270000000000000809843000097430000CD4319
:1022800042696C696E656172204C6576656C696E39
:102290006720477269643A0A00BBD8D4ADB5E3CA77
:1022A000A7B0DC00000000000000000000486F6DD7
:1022B000696E67206661696C65640000000000005B
:1022C00000486F6D696E672066616C6C6F0000007E
:1022D00000000000005761726E696E673A204D6918
:1022E0007820666163746F7273206D7573742061FA
:1022F000646420757020746F20312E302E2053635B
:10230000616C696E672E0A00202844525952554E5E
:102310002900473239204175746F20426564204C92
:102320006576656C696E67003F20284C2C522C4600
:102330002C4229206F7574206F6620626F756E6461
:10234000732E0A003F2856296572626F7365206CF0
:102350006576656C20697320696D706C6175736951
:10236000626C652028302D34292E0A0042616420D9
:102370005A2076616C75650A004E6F2062696C693F
:102380006E65617220677269640A00D1A1D4F1B4EC
:10239000F2D3A1CEC4BCFE0000000000000000008B
:1023A00000000000000000000053656C65637420AD
:1023B0005072696E742046696C6500000000000070
:1023C0000000000000000053656C656363696F6E78
:1023D0006520496D7072696D697220417263686928
:1023E000766F0000002000000000000000000000E8
:1023F00000000000200000000000000000000000BD
:102400000000006DA8A273206172636869766F7323
:102410002E0020000000000000000000000000006E
:1024200000000000000000000000000000000000AC
:10243000000000000000000000000000000000009C
:10244000000000000000000000000000000020006C
:10245000000000000000000000000000000000007C
:10246000000000000000000000000000000000006C
:10247000000000000000000000000000000000005C
:102480000000000000000000000048616761206358
:102490006C696320656E20656C20626F74A8AE6EF7
:1024A00020616E746572696F72206F207369677541
:1024B00069656E74652070617261206D6F737472EE
:1024C0006172000000002000000000000000000019
:1024D00000000000000000000000200000000000DC
:1024E0000000000000000000000000000000696E15
:1024F00074657266617A207072696E636970616C6E
:102500002E00B5E3BBF7C9CFD2BBB2BDBBF2CFC281
:10251000D2BBB2BD2C20CFD4CABEB8FCB6E0CEC46C
:10252000BCFE0000000000000000000000000000F1
:102530000000000000000000000000000000436CEC
:1025400069636B207468652070726576696F757356
:10255000206F72206E65787420627574746F6E20BF
:10256000746F20646973706C6179206D6F7265207F
:1025700066696C65732E00000000696D7072696D8C
:1025800069722E204861676120636C696320656E03
:1025900020656C20626F74A8AE6E20417472A8A290
:1025A00073207061726120766F6C76657220612095
:1025B0006C6100000000B5E3BBF7B7B5BBD8B0B4A1
:1025C000C5A52C20B7B5BBD8D6F7BDE7C3E600003C
:1025D00000000000000000000000000000000000FB
:1025E00000000000000000000000000000000000EB
:1025F0000000436C69636B20746865206261636BE3
:1026000020627574746F6E20746F207265747572B9
:102610006E20746F20746865206D61696E20696E2C
:10262000746572666163652E0000000000004861F9
:10263000676120636C696320656E20656C206E6F36
:102640006D6272652064656C206172636869766F83
:10265000207061726120636F6D656E7A61722061B6
:1026600000000000000000000000B5E3BBF7CEC48E
:10267000BCFEC3FB2C20BFAACABCB4F2D3A100008D
:10268000000000000000000000000000000000004A
:10269000000000000000000000000000436C6963BF
:1026A0006B206F6E207468652066696C656E616D65
:1026B0006520746F207374617274207072696E7417
:1026C000696E672E00000000000000000000544604
:1026D0002E000000000000000000000000000000CC
:1026E00000000000000000000000000000000000EA
:1026F00000000000000000000000000000000000DA
:10270000B1BEBDE7C3E6CFD4CABE5446BFA8D6D03B
:10271000B5C4B4F2D3A1CEC4BCFE000000000000DA
:1027200000000000000000000000000000000000A9
:102730000000000000000000000000005468697301
:10274000206D656E7520646973706C617973207497
:102750006865207072696E742066696C6520696EA8
:1027600020544620636172642E00000000000000C7
:10277000000000000000000045737465206D656E68
:10278000A8B2206D75657374726120656C206172EA
:10279000636869766F20646520696D70726573691E
:1027A000A8AE6E20656E206C61207461726A6574DB
:1027B000610000002020B7B5BBD800000000202039
:1027C0004261636B2000000020566F6C76657220BA
:1027D0000000B0EFD6FA000048656C700000417947
:1027E000756461004732382058204632303030005E
:1027F000D5FDD4DABCD3C8C82E2E2E000000004868
:10280000656174696E672E2E2E0000000000436122
:102810006C656661636369A8AE6E0000005AD6E11C
:10282000B9E9CEBB3A00000000000000005A204188
:1028300078697320486F6D696E673A00005A2041CD
:1028400078697320486F6D696E673A000059D6E168
:10285000B9E9CEBB3A000000000000000059204159
:1028600078697320486F6D696E673A00005920419E
:1028700078697320486F6D696E673A000058D6E139
:10288000B9E9CEBB3A00000000000000005820412A
:1028900078697320486F6D696E673A00005820416F
:1028A00078697320486F6D696E673A0000C6BDCCC9
:1028B000A8BCD3C8C83A000000000000004265640C
:1028C0002048656174696E673A00000000506C61D1
:1028D0007461666F726D61000000000000C5E7CD95
:1028E000B7BCD3C8C83A000000000000004E6F7AA1
:1028F0007A6C652048656174696E673A00426F7151
:1029000075696C6C613A000000000000002020CC6A
:10291000F8B9FD000000002020536B697000000032
:1029200000202053616C7461720000BFAABBFAD70B
:10293000D4BCEC000000000000000000000000001B
:1029400000000000506F73740000000000000000E1
:10295000000000000000000000000000004175744D
:102960006F70727565626120646520656E63656E67
:102970006469646F00004D3138004731205A3530AA
:10298000204635303000CEDEB7A8B9E9CEBB2100F5
:10299000000000000000486F6D696E6720466169A5
:1029A0006C2100000000486F6D696E672066616CE5
:1029B0006C6F21000000BCD3C8C8CAA7B0DC2100DE
:1029C0000000000000000000000000000000000007
:1029D00048656174696E67206661696C210000005A
:1029E0000000000000000000000046616C6C6120E7
:1029F00064652063616C656E74616D69656E746F8A
:102A0000000000004D3138002000000000000000F0
:102A100000000000000000000000000000000000B6
:102A200000000000000000000000000000000000A6
:102A30006C6F6F73652E0000000000000000000046
:102A40000000000000000000000000000000000086
:102A500000000000000000006361626C6520657387
:102A600074A8A2207375656C746F2E0000000000BE
:102A70000000000000000000000000000000000056
:102A80002000000000000000000000000000000026
:102A90000000000000000000000000000000000036
:102AA0000000000000000000000000000000000026
:102AB000000000000000000000000000706C656174
:102AC000736520636865636B2069662074686520A0
:102AD000656E6473746F702069732064616D6167E3
:102AE0006564206F7220746865206361626C652084
:102AF0006973000000000000706F73696369A8AE1D
:102B00006E206365726F2C20636F6D7072756562E5
:102B10006520736920656C20746F7065206573741F
:102B2000A8A22064613F61646F206F2073692065F3
:102B30006C000000BFAAB9D8CAC7B7F1CBF0BBB5CB
:102B40002C20BBF2CAC7BDD3CFDFCAC7B7F1CBC9F0
:102B5000B6AF2E00000000000000000000000000E2
:102B60000000000000000000000000000000000065
:102B7000496620746865206E6F7A7A6C6520646F90
:102B80006E27742073746F70206166746572207292
:102B9000657475726E20746F20746865207A657232
:102BA0006F20706F736974696F6E2C005369206CAD
:102BB0006120626F7175696C6C61206E6F20736546
:102BC0002064657469656E65206465737075A8A678
:102BD0007320646520766F6C7665722061206C616D
:102BE0000000000000000000CAC7B7F1CBC9B6AFB3
:102BF0002E20C8E7B9FBC5E7CDB7D4CBD0D0B5BD43
:102C0000D4ADB5E3CEBBD6C3BAF3CEB4CDA3D6B95B
:102C10002C20C7EBBCECB2E9CFDECEBB2E0000000F
:102C200000000000706C6561736520636865636B0C
:102C300020696620746865206D6F746F722063610F
:102C4000626C65206973206C6F6F73652E000000E5
:102C50000000000000000000000000000000000074
:102C6000657374A8A2206D6F7669656E646F2C2001
:102C7000766572696669717565207369656C206334
:102C800061626C652064656C206D6F746F72206585
:102C90007374A8A2207375656C746F00582C592C3E
:102CA0005AD6E1CEDEB7A8B9E9CEBBB9CAD5CF3A7C
:102CB00020C8E7B9FBC5E7CDB7CEB4D4CBB6AF2CAF
:102CC00020C7EBBCECB2E9B5E7BBFABDD3CFDF0060
:102CD0000000000000000000582C20592C205A2031
:102CE0006178697320686F6D696E67206661756CC5
:102CF000743A20496620746865206E6F7A7A6C6534
:102D0000206973206E6F74206D6F76696E672C007A
:102D1000000000007375656C746F732E2046616C43
:102D20006C61206465206769726F2064656C206542
:102D30006A6520582C20592C205A3A207369206C3F
:102D40006120626F7175696C6C61206E6F736500D4
:102D5000C8C8B4B2B5C4BDD3CFDFCAC7B7F1CBC9F9
:102D6000B6AF2E00000000000000000000000000D0
:102D70000000000000000000000000000000000053
:102D800000000000000000000000000074686520E2
:102D90006361626C65206F6620746865206E6F7A6F
:102DA0007A6C65206F7220746865206265642069A2
:102DB00073206C6F6F73652E000000000000000030
:102DC0000000000000000000636F6D7072756562A6
:102DD0006520736920656C206361626C65206465A1
:102DE000206C6120626F7175696C6C61206F206C62
:102DF000612063616D6120657374A8A26E2000007C
:102E000000000000C5E7CDB7BBF2C8C8B4B2CEDE43
:102E1000B7A8B6C1C8A1CEC2B6C8BBF2CEDEB7A8AD
:102E2000BCD3C8C8B9CAD5CF3A20C7EBBCECB2E90D
:102E3000C5E7CDB7BBF200000000000000000000B5
:102E400054656D70657261747572652063616E277B
:102E5000742062652072656164206F72206865610C
:102E600074696E67206661696C3A20506C656173A5
:102E70006520636865636B20696600004C6120749F
:102E8000656D7065726174757261206E6F20736517
:102E9000207075656465206C656572206F206C61BB
:102EA0002063616C656661636369A8AE6E206661CC
:102EB0006C6C613A000000002020B7B5BBD8000060
:102EC000000020204261636B2000000020566F6CE0
:102ED000766572200000B0EFD6FA000048656C708D
:102EE00000004179756461005754434D443A434FA3
:102EF0004E4649470A002000000000000000000084
:102F000000000000000000000000000000000000C1
:102F100000000000000000000000000000000000B1
:102F20000000000000000000537563636573732C9C
:102F300020726573746172742074686520707269A0
:102F40006E7465722E00000000000000000000009A
:102F50000000000000000000000070A8A267696E79
:102F60006120696E646971756520436F7272656373
:102F7000746F2C207265696E69636965206C6120CD
:102F8000696D707265736F7261000000C8BBBAF33F
:102F9000D6D8C6F4B4F2D3A1BBFA2E0000000000CC
:102FA0000000000000000000000000000000000021
:102FB0000000000000000000000000000000436C62
:102FC00069636B204A6F696E20616E642077616966
:102FD000742E205768656E2074686520706167657F
:102FE0002070726F6D7074730000000000000000AC
:102FF0006173656E612E2048617A20636C6963207D
:10300000656E20556E6972736520792065737065F1
:1030100072612E204375616E646F206C6100000048
:103020000000B5E3BBF74A6F696E2E20D2B3C3E64A
:10303000CCE1CABE53756363657373B1EDCABEC19B
:10304000AACDF8B3C9B9A62E000000000000000008
:103050000000000000006E6574776F726B206E6177
:103060006D6520616E6420656E746572207468659C
:103070002070617373776F72642E0000000000008F
:1030800000000000000000000000656C206E6F6D05
:10309000627265206465206C6120726564206573CE
:1030A00063616E65616461206520696E6772657336
:1030B00065206C6120636F6E747200000000B8BD03
:1030C000BDFCBFC9D3C3B5C457494649CDF8C2E713
:1030D0002E20B5E3BBF7CDF8C2E7C3FBBAF3CAE4D1
:1030E000C8EBC3DCC2EBA3AC000000000000000092
:1030F000687474703A2F2F31302E31302E302E31CB
:103100003A38382F2E20436C69636B207468652031
:103110007363616E6E6564200000000000000000B3
:103120000000706172612076697369746172206851
:103130007474703A2F2F31302E31302E302E313AB8
:1031400038382F2E204861676120636C69632065E1
:103150006E000000CAB9D3C3E4AFC0C0C6F7B7C39E
:10316000CECA687474703A2F2F31302E31302E3021
:103170002E313A38382F2C20D2B3C3E6BBE1CFD45E
:10318000CABE0000000000005749464943414D5760
:10319000447878787878782E20557365206120629D
:1031A000726F7773657220746F207669736974002B
:1031B00000000000000000000000000070756E7448
:1031C0006F2064652061636365736F2057494649CA
:1031D00043414D57447878787878782E2055736538
:1031E00020756E206E6176656761646F7200000005
:1031F000CAB9D3C3CAD6BBFABBF2B5E7C4D4C1AC13
:10320000BDD3B5BD57494649C8C8B5E35749464936
:1032100043414D5744787878787878000000000072
:1032200000005573652070686F6E65206F722063B3
:103230006F6D707574657220746F206A6F696E208F
:1032400074686520686F7473706F742000000000EC
:103250000000000055736520656C2074656CA8A69D
:10326000666F6E6F206F206C6120636F6D70757478
:1032700061646F7261207061726120756E69727332
:103280006520616C0000C9E8D6C357494649CDF8AE
:10329000C2E70000000000000000574946492043F3
:1032A0004F4E464947000000000000000000434F19
:1032B0004E46494755524143494F4E20574946498A
:1032C000000020203630302500002020343030250A
:1032D0000000202032303025000020203130302501
:1032E0000000202035302500000020203235250048
:1032F00000002020C8B7B6A8000000000000202071
:103300004F4B0000000000000000444520414355A1
:103310004552444F00002020C8A1CFFB0000000010
:103320002043616E63656C0000002043616E63653D
:103330006C617200B4F2D3A1CBD9B6C8C9E8D6C3C8
:10334000000000000000000000005072696E742050
:1033500053706565642053657474696E670000007E
:10336000416A757374652064652076656C6F636966
:103370006461640000002000000000000000000004
:10338000000000000000000000000000000000003D
:10339000000000000000000000000000000000002D
:1033A00000000000000000002000000000000000FD
:1033B000000000000000000000000000000000000D
:1033C00000000000000000000000000000000000FD
:1033D00000000000000000000000646520636F72C0
:1033E000746520706172612061636F727461722014
:1033F000656C207469656D706F20646520696D70FF
:1034000072657369A8AE6E2E0000000020000000F7
:1034100000000000000000000000000000000000AC
:10342000000000000000000000000000000000009C
:10343000000000000000000000000000000000008C
:103440000000000000000000736F66747761726511
:1034500020746F2073686F7274656E2074686520C5
:103460007072696E74696E672074696D652E0000F4
:10347000000000000000000000000000000000004C
:1034800000000000496E74656E7465207574696C87
:10349000697A617220656C206D6F646F20646520AD
:1034A000616C74612076656C6F636964616420652A
:1034B0006E20656C20736F66747761726500000022
:1034C00020000000000000000000000000000000DC
:1034D00000000000000000000000000000000000EC
:1034E00000000000000000000000000000000000DC
:1034F000000000000000000000000000506C65614A
:1035000073652074727920746F20757365207468F8
:10351000652068696768207370656564206D6F64F5
:103520006520696E2074686520736C6963696E67D5
:103530000000000000000000646520696D70726585
:103540007369A8AE6E2E00000000000000000000AD
:10355000000000000000000000000000000000006B
:10356000000000000000000000000000000000005B
:10357000000000002000000000000000000000002B
:10358000000000000000000000000000000000003B
:10359000000000000000000000000000000000002B
:1035A000000000000000000000000000000000001B
:1035B00072656475636520746865207072696E74E5
:1035C000207175616C6974792E00000000000000A4
:1035D00000000000000000000000000000000000EB
:1035E00000000000000000000000000064656D6144
:1035F000736961646F2072A8A2706964612072654A
:103600006475636972A8A2207369676E69666963ED
:1036100061746976616D656E7465206C61206361AB
:103620006C69646164000000C7EBBEA1C1BFCAB988
:10363000D3C3C7D0C6ACC8EDBCFED6D0B5C4B8DFC6
:10364000CBD9C4A3CABDC0B4CBF5B6CCB4F2D3A118
:10365000CAB1BCE42E000000000000000000000021
:10366000000000004E6F746963653A205072696E05
:1036700074696E672073706565642073657474691E
:103680006E677320746F6F20666173742077696C46
:103690006C207369676E69666963616E746C79002A
:1036A000417669736F3A206C6120636F6E6669675B
:1036B0007572616369A8AE6E206465206C612076C6
:1036C000656C6F636964616420646520696D707204
:1036D000657369A8AE6E000000000000C7EBD7A2BA
:1036E000D2E23A20B4F2D3A1CBD9B6C8C9E8D6C346
:1036F000B9FDBFECBBE1C3F7CFD4BDB5B5CDB4F2D6
:10370000D3A1D6CAC1BF2E000000000000000000F7
:1037100000000000000000006A6F622E0000000040
:103720000000000000000000000000000000000099
:103730000000000000000000000000000000000089
:103740000000000000000000000000000000000079
:103750000000000074726162616A6F2061637475B9
:10376000616C2E000000000000000000000000005E
:103770000000000000000000000000000000000049
:103780000000000000000000000000000000000039
:10379000B1BEBDE7C3E6BFC9B5F7BDDAB5B1C7B0C5
:1037A000B4F2D3A1C8CECEF1B5C4B4F2D3A1CBD973
:1037B000B6C82E000000000000000000000000005D
:1037C0000000000000000000000000005468697361
:1037D000206D656E752063616E2061646A75737417
:1037E00020746865207072696E74696E67207370EA
:1037F000656564206F662074686520637572726504
:103800006E7400000000000045737465206D656EE5
:10381000A8B220707565646520616A757374617201
:10382000206C6120706172746520646520696D7020
:1038300072657369A8AE6E2064656C0000000000BC
:10384000000000002020B7B5BBD8000000002020F9
:103850004261636B2000000020566F6C7665722019
:103860000000B0EFD6FA000048656C7000004179A6
:10387000756461007C3C3E5E2B3D3F2F5B5D3B2CC5
:103880002A225C005754434D443A4F544144454624
:1038900041554C540A0020002000000000000000A8
:1038A00000000000000000000000000020000000F8
:1038B0000000000000000000000000000000000008
:1038C000206C612061637475616C697A616369A8B9
:1038D000AE6E2E0020B8FCD0C2B3C9B9A6BAF32C84
:1038E00020C7EBD6D8C6F4B4F2D3A1BBFA000000CF
:1038F000000000000000000000000000205265628F
:103900006F6F7420746865207072696E74657220C0
:103910006166746572207468652075706461746591
:103920002E000000205265696E69636965206C6134
:1039300020696D707265736F726120646573707554
:10394000A8A67320646500000000000020D5FDD407
:10395000DABCECB2E2B8FCD0C22C20C7EBB2BBD2CE
:10396000AAB9D8B1D5B5E7D4B40000000000000072
:103970000000000020706C6561736520646F206E2C
:103980006F74207475726E206F666620746865208F
:10399000706F7765722E00000000000020506F727B
:1039A000206661766F722C206E6F20617061677582
:1039B00065206C6120616C696D656E74616369A8D6
:1039C000AE6E2E002000000000000000000000008D
:1039D00000000000000000000000000000000000E7
:1039E000000020436865636B696E6720666F722014
:1039F000757064617465732C200000000000000085
:103A000020436F6D70726F62616E646F20616374CA
:103A100075616C697A6163696F6E65732C00202033
:103A2000B7B5BBD80000000020204261636B2000C6
:103A3000000020566F6C7665722000005749464999
:103A4000B9CCBCFEC9FDBCB60000005749464920B0
:103A50004F54410000000000000057494649204FE4
:103A6000544100000000000000CAA3D3E0CAB1BC6A
:103A7000E43A00000000000000000052656D61693A
:103A80006E696E672074696D653A0000005469655F
:103A90006D706F2072657374616E74653A0000D545
:103AA000FDD4DAD7BCB1B8B9D8B1D5B4F2D3A1BB83
:103AB000FA2E0000000000000000000000000000DE
:103AC0000000000000507265706172696E672074BA
:103AD0006F207475726E206F666620746865207042
:103AE00072696E7465722E0000000050726570611C
:103AF00072616E646F2070617261206170616761D4
:103B000072206C6120696D707265736F72612E0036
:103B1000002020CDCBB3F6000000002020517569B5
:103B20007400000000202044656A6172000000D724
:103B3000BCB1B8B9D8BBFA0000000000000000001A
:103B40000000005072657061726520506F77657279
:103B50006F666600000000507265706172617220CD
:103B6000656C206170616761646F0020203330B73D
:103B7000D6D6D30000000020203330206D696E00BF
:103B80000000003330206D696E75746F7300002083
:103B9000203135B7D6D6D3000000002020313520A3
:103BA0006D696E000000003135206D696E75746FAF
:103BB00073000020203130B7D6D6D300000000209B
:103BC000203130206D696E000000003130206D69B9
:103BD0006E75746F730000202035B7D6D6D3000001
:103BE000000000202035206D696E000000000035C7
:103BF000206D696E75746F73000000202031B7D698
:103C0000D6D30000000000202031206D696E000036
:103C10000000002031206D696E75746F0000002077
:103C20002020B9D8B1D500000000000000202044B9
:103C3000697361626C65000000000020496E686174
:103C400062696C6974617200002020C8B7B6A80070
:103C5000000000000020204F4B000000000000008A
:103C6000004445204143554552444F00002020C8A0
:103C7000A1CFFB000000002043616E63656C000073
:103C8000002043616E63656C617200D7D4B6AFB932
:103C9000D8B1D5B5E7D4B4C9E8D6C3000000000058
:103CA0000000000000000000004175746F20506F9C
:103CB000776572204F66662053657474696E67007D
:103CC00000000000000000416A757374652064659F
:103CD000206170616761646F206175746F6DA8A267
:103CE0007469636F00200000000000000000000005
:103CF00000000000000000000020000000000000A4
:103D00000000000000000000000000000061686F7B
:103D100072726F20646520656E657267A8AA612E55
:103D20000020000000000000000000000000000073
:103D30000000000000000000000000000000000083
:103D40000000000000000000000000000000000073
:103D50000000000000000000000000000053656C3F
:103D6000656374696E67204F66662077696C6C20A6
:103D700064697361626C652074686520706F776533
:103D800072207361766520666561747572652E00B8
:103D900000000000000000000053692073656C659E
:103DA0006363696F6E6120446573616374697661F2
:103DB000646F2C2073652064657361637469766138
:103DC00072A8A2206C612066756E6369A8AE6E2031
:103DD00064650000002000000000000000000000FA
:103DE0000000000000000000006D696E75746573CE
:103DF0002E00000000000000000000000068617359
:103E00007461203330206D696E75746F732E0000FD
:103E10000020000000000000000000000000000082
:103E20000000000000000000000000000000000092
:103E30000000000000000000000000000000000082
:103E40000000000000000000000000000054686551
:103E50002077616974696E672074696D652063619C
:103E60006E206265207365742066726F6D2031204C
:103E70006D696E75746520746F203330000000002A
:103E8000000000000000000000456C207469656DB2
:103E9000706F2064652065737065726120736520A2
:103EA000707565646520636F6E66696775726172AF
:103EB0002064657364652031206D696E75746F00D0
:103EC0000000000000D1A1D4F1B9D8B1D5BDABBD7F
:103ED000FBD3C3BDDAB5E7B9A6C4DC2E00000000F1
:103EE00000000000000000000000000000000000D2
:103EF00000000000000000000000000000000000C2
:103F00000077616974696E6720666F722061207046
:103F10006572696F64206F662074696D6520746FC7
:103F2000207361766520656E657267792E000000EA
:103F30000000000000000000000000000065737039
:103F40006572617220756E20706572A8AA6F646FC9
:103F5000206465207469656D706F207061726120E6
:103F600061686F7272617220656E657267A8AA617E
:103F70002E0000000000000000B5E7D4B4A3ACD2CE
:103F8000D4BDDAD4BCC4DCD4B42E20B5C8B4FDCAC8
:103F9000B1BCE4BFC9C9E8D6C3B4D331B7D6D6D310
:103FA000D6C13330B7D6D6D32E00000000000000B3
:103FB00000000000006F7065726174696F6E2C20E4
:103FC00069742077696C6C206175746F6D617469B8
:103FD00063616C6C79207475726E206F66662074F4
:103FE000686520706F776572206166746572000085
:103FF000006F706572616369A8AE6E2C20736520D6
:10400000617061676172A8A2206175746F6DA8A26A
:10401000746963616D656E7465206465737075A8FD
:10402000A6732064650000000000000000B4F2D315
:10403000A1B4A6D3DAB4FDBBFAD7B4CCACA3ACC759
:10404000D2CEDEB2D9D7F7CAB1A3ACD4DAB5C8B4F0
:10405000FDD2BBB6CECAB1BCE4BAF3D7D4B6AFB9C1
:10406000D8B1D50000000000005768656E2070725E
:10407000696E74696E6720697320696E207374615C
:104080006E646279206D6F646520616E642074686F
:10409000657265206973206E6F00000000000000EB
:1040A00000000000004375616E646F206C61206940
:1040B0006D7072657369A8AE6E20657374A8A220D6
:1040C000656E206D6F646F20646520657370657226
:1040D000612079206E6F2068617900000000000087
:1040E000002020B7B5BBD80000000020204261634B
:1040F0006B2000000020566F6C766572200000B0C7
:10410000EFD6FA000048656C700000417975646173
:10411000002020C8B7B6A800000000000020204FF3
:104120004B0000000000000000444520414355457D
:1041300052444F0000C9E8D6C3C4BFB1EACEC2B6EC
:10414000C8000000000000000000000000000000A7
:10415000000000000053657420546172676574208C
:1041600054656D70657261747572650000000000C1
:104170000000000000416A7573746172206C612058
:1041800074656D7065726174757261206F626A65C5
:104190007469766F0020000000000000000000201D
:1041A0000000000000000000007920766F6C76654A
:1041B000722E00200000000000000000000000003F
:1041C00000000000000000000000000000000000EF
:1041D00000000000000000000000000000000000DF
:1041E000000000000000000000000000000000438C
:1041F0006C69636B2043616E63656C20746F20741F
:1042000075726E206F66662068656174696E6720DE
:10421000616E642072657475726E2E00000000007D
:1042200000000000000000000000004861676120FD
:10423000636C696320656E20656C20626F74A8AE44
:104240006E2043616E63656C6172207061726120E3
:10425000617061676172206C612063616C65666189
:10426000636369A8AE6E002000000000000000003B
:10427000000000000000000000000000000000003E
:10428000000000000000000000000000000000002E
:10429000000000000000000000000000000000001E
:1042A000000000436C69636B204F4B20746F2073D8
:1042B000746172742068656174696E672E00000015
:1042C00000000000000000000000000000000000EE
:1042D0000000000000000000000000000000004896
:1042E00061676120636C696320656E20656C206284
:1042F0006F74A8AE6E204163657074617220706146
:10430000726120696E696369617220656C63616CBA
:10431000656E74616D69656E746F00B5E3BBF7C857
:10432000A1CFFB2C20B9D8B1D5BCD3C8C8B2A2B795
:10433000B5BBD82E00000000000000000000000007
:10434000000000000074656D7065726174757265BF
:1043500020746F207A65726F2E000000000000004C
:1043600000000000000000000000000000000074D9
:10437000656D70657261747572612061206365722C
:104380006F2E000000000000000000000000000090
:10439000000000000000000000B5E3BBF7C8B7B69E
:1043A000A82C20BFAACABCBCD3C8C82E00000000DD
:1043B00000000000000000000000000000000000FD
:1043C00000000000000000000000000000000000ED
:1043D0000000000000466F72206974656D207468EB
:1043E000617420646F206E6F7420726571756972DC
:1043F000652068656174696E672C2073657420742C
:1044000068650000000000000000000000000000DF
:104410000050617261206C6F7320617274A8AA638E
:10442000756C6F7320717565206E6F207265717584
:10443000696572656E2063616C656661636369A816
:10444000AE6E2C20616A757374656C6100B2BBD06E
:10445000E8D2AABCD3C8C8B5C4CFEEC4BF2C20BF15
:10446000C9BDABCEC2B6C8C9E8D6C3CEAA302E00ED
:1044700000000000006F6E65206F66207468656D37
:10448000206973206865617465642E000000000077
:1044900000000000000000000000000000656C6CDF
:1044A00061732073652063616C69656E74612E00B1
:1044B00000000000000000000000000000000000FC
:1044C0000000000000B6D4C5E7CDB7BACDC6BDCC5C
:1044D000A8BDF8D0D0D2BBC6F0BCD3C8C82C20BB76
:1044E000F2CAC7BDF6BCD3C8C8C6E4D6D0B5C4D2DC
:1044F000BBC6E42E00000000000000000000000029
:1045000000546865206E6F7A7A6C6520616E642055
:1045100074686520626564206172652068656174F5
:10452000656420746F676574686572206F72206FB0
:104530006E6C79000000000000000000004C61205B
:10454000626F7175696C6C612079206C61206361A8
:104550006D612073652063616C69656E74616E20A6
:104560006A756E746173206F20736F6C6F20756E47
:104570006120646500000000002020B7B5BBD800B2
:1045800000000020204261636B2000000020566F75
:104590006C766572200000B0EFD6FA000048656CBA
:1045A000700000417975646100C6BDCCA8CEC2B66A
:1045B000C800004265640000000000000043616D17
:1045C00061000000000000C5E7CDB7CEC2B6C8004C
:1045D000004E6F7A7A6C6500000000426F71756959
:1045E0006C6C6100002020C8A1CFFB0000000020FF
:1045F00043616E63656C0000002043616E63656C0F
:104600006172002020C9E8D6C30000000020536575
:104610007474696E67000020416A757374650000E8
:1046200000D5FDD4DABCD3C8C800000000000048A3
:10463000656174696E670000000000000043616CF2
:10464000656661636369A8AE6E0000B4F2D3A1BB76
:10465000FACEACBBA4000000000000000000000087
:1046600000000000000000000000005072696E743D
:104670006572204D61696E74656E616E63650000E0
:1046800000000000000000000000004D616E746535
:104690006E696D69656E746F206465206C61206958
:1046A0006D707265736F72610000006C6F616420E1
:1046B00073637265656E20707265706172650A0061
:1046C000BBFAB5C4CBF8B6A82E000000000000006D
:1046D00000000000000000000000000000000000DA
:1046E00000000000000000000000000000000000CA
:1046F000000000000000000000000000200000009A
:1047000000000000000000000000000000000000A9
:104710000000000000000000000000000000000099
:104720000000000000000000000000000000000089
:104730000000000000000000200000000000000059
:104740000000000000000000000000000000000069
:104750000000000000000000000000000000000059
:104760000000000000000000000000000000000049
:1047700000000000CAD6B6AFB5F7BDDAC5E7CDB7C1
:10478000BBF2C6BDCCA8B5C4CEBBD6C3CAB12C2023
:10479000D0E8D2AACAD7CFC8B9D8B1D5B5E7BBFA45
:1047A0002C20BDE2B3FDB5E70000000000000000D2
:1047B00020000000000000000000000000000000D9
:1047C00000000000000000000000000000000000E9
:1047D00000000000000000000000000000000000D9
:1047E00000000000000000000000000020000000A9
:1047F00000000000000000000000000000000000B9
:1048000000000000000000000000000000000000A8
:104810000000000000000000000000000000000098
:104820000000000000000000B9D8B1D5B5E7BBFA20
:104830003A20B5E7BBFAB4F2BFAACAB12C20CEBB6E
:10484000D6C3BBE1B1BBCBF8B6A8CEDEB7A8D2C603
:10485000B6AF2E20B5B1C4E3D0E8D2AA0000000064
:10486000000000006973206C6F636B656420616EEB
:10487000642063616E6E6F74206265206D6F766573
:10488000642E000000000000000000000000000096
:104890000000000000000000000000000000000018
:1048A000706F73696369A8AE6E20736520626C6F68
:1048B000717565612079206E6F2073652070756554
:1048C0006465206D6F7665722E00000000000000A8
:1048D000000000000000000000000000B4F2D3A1BE
:1048E000CAB1C8DDD2D7B9CEB5BDC4A3D0CD2E00D4
:1048F00000000000000000000000000000000000B8
:1049000000000000000000000000000000000000A7
:1049100000000000000000004D6F746F72204F66B1
:10492000663A205768656E20746865206D6F746FF5
:1049300072206973207475726E6564206F6E2C200E
:1049400074686520706F736974696F6E0000000091
:10495000000000004D6F746F7220617061676164C8
:104960006F3A206375616E646F20656C206D6F74A3
:104970006F7220657374A8A220656E63656E6469AA
:10498000646F2C206C61000000000000000000003B
:10499000BFAAB9D8B9FDB8DF2C20BBE1B5BCD6C2DF
:1049A000D7D4B6AFB5F7C6BDCAB1C5E7CDB7D3EB5F
:1049B000C6BDCCA8D7B2BBF72E20BFAAB9D8B9FDC7
:1049C000B5CD2C00000000000000000070726F7870
:1049D000696D6974792073776974636820746F20D6
:1049E000746865206E6F7A7A6C652E000000000096
:1049F00000000000000000000000000000000000B7
:104A0000000000000000000064652070726F78698B
:104A10006D6964616420616C20636162657A616CB8
:104A200020726F636961646F722E000000000000E5
:104A30000000000000000000000000000000000076
:104A400000000000BDD3BDFCBFAAB9D8B8DFB6C80E
:104A5000B5F7BDDA3A20B5F7BDDABDD3BDFCBFAAC4
:104A6000B9D8D3EBC5E7CDB7B5C4CFE0B6D4CEBB8C
:104A7000D6C32E20BDD3BDFC000000000000000006
:104A800050726F78696D69747920486569676874D8
:104A90003A2041646A757374207468652072656C8D
:104AA000617469766520706F736974696F6E206FC9
:104AB00066207468650000000000000050726F7886
:104AC000696D696461643A20616A75737465206C0C
:104AD0006120706F73696369A8AE6E2072656C6146
:104AE000746976612064656C20696E746572727594
:104AF00070746F72000000002000000000000000D1
:104B000000000000000000000000000000000000A5
:104B10000000000000002000000000000000000075
:104B20000000000000000000000000000000000085
:104B30000000000079206C6120706C617461666F08
:104B4000726D6120616C20696D7072696D69722E81
:104B50000000200000000000000000000000000035
:104B60000000000000000000000000000000000045
:104B70000000000000000000000000000000000035
:104B80000000000000000000000000000000616E56
:104B9000642074686520706C6174666F726D207734
:104BA00068656E207072696E74696E672E00000011
:104BB00000000000000000000000000000000000F5
:104BC00000000000000000000000706C617461666D
:104BD0006F726D612C20707565646520616A7573F4
:104BE00074617220656C206573706163696F206504
:104BF0006E747265206C6120626F7175696C6C6196
:104C0000000000000000C5E7CDB7D3EBC6BDCCA8BF
:104C1000B5C4BCE4CFB62E000000000000000000C8
:104C20000000000000000000000000000000000084
:104C30000000000000000000000000000000000074
:104C4000000074686520706C6174666F726D2C2052
:104C500069742063616E2061646A7573742074687E
:104C60006520676170206265747765656E20746881
:104C700065206E6F7A7A6C65000000000000446564
:104C80007366617365205A3A20616A757374652092
:104C90006C6120616C747572612072656C617469FD
:104CA0007661206465206C6120626F7175696C6C3F
:104CB000612079206C61000000005AD6E1C6ABD6B5
:104CC000C33A20CEA2B5F7C5E7CDB7D3EBC6BDCC6E
:104CD000A8B5C4CFE0B6D4B8DFB6C8A3ACBFC9B5D9
:104CE000F7B4F3BBF2B5F7D0A1B4F2D3A1CAB100C7
:104CF0000000000000005A204F66667365743A2079
:104D000046696E652D74756E6520746865207265E0
:104D10006C617469766520686569676874206F6680
:104D200020746865206E6F7A7A6C6520616E64000D
:104D300000005859206465206C6120626F717569AC
:104D40006C6C612E000000000000000000000000FC
:104D50000000000000000000000000000000000053
:104D60000000000000000000000000000000D4CBA4
:104D7000D0D0B5C45859C6BDCCA82E000000000044
:104D80000000000000000000000000000000000023
:104D90000000000000000000000000000000000013
:104DA00000000000000000000000746861742069C9
:104DB0007420697320706172616C6C656C20746F13
:104DC00020746865205859207374616765206F6688
:104DD00020746865206E6F7A7A6C652E0000000082
:104DE000000000000000646520696D7072657369E1
:104DF000A8AE6E206465206D6F646F2071756520AC
:104E0000717565646520706172616C656C6F20619D
:104E1000206C61206574617061000000000000007A
:104E20000000C6BDCCA8D0A3D7BC3A20B6D4B4F2FB
:104E3000D3A1C6BDCCA8B5C4CBAEC6BDB6C8BDF85F
:104E4000D0D0B5F7BDDAA3ACCAB9C6E4C6BDD0D0E0
:104E5000D3DAC5E7CDB700000000000000004C65C4
:104E600076656C204265643A2041646A75737420EB
:104E7000746865206C6576656C206F662074686563
:104E8000207072696E74696E6720706C6174666FF1
:104E9000726D20736F000000000058595A2E204E8A
:104EA0006976656C617220706C617461666F726D99
:104EB000613A20616A7573746520656C206E69764D
:104EC000656C206465206C6120706C617461666F34
:104ED000726D61000000B5E3B6AFC4A3CABD3A204D
:104EE000C5E7CDB7B9E9CEBB2C20D2D4BCB0CAD669
:104EF000B6AFBFD8D6C658595AB7BDCFF2B5C4D48D
:104F0000CBB6AF2E00000000000000000000000043
:104F100000004A6F67204D6F64653A20486F6D69E5
:104F20006E6720616E64206D616E75616C20636FC9
:104F30006E74726F6C206F662058595A206D6F74B2
:104F4000696F6E2E000000000000000000004D6F31
:104F5000646F206465206A6F673A20486F6D696EE0
:104F600067207920636F6E74726F6C206D616E754F
:104F7000616C206465206D6F76696D69656E746F14
:104F80000000000000000000000020000000000001
:104F90000000000000000000000000000000000011
:104FA0000000000000000000616E6420686561740C
:104FB000696E672E00000000000000000000000085
:104FC00000000000000063616D612079206C6120A9
:104FD00063616C656661636369A8AE6E2E00000054
:104FE00000000000200000000000000000000000A1
:104FF00000000000000000000000000000000000B1
:1050000000000000000000000000000000000000A0
:105010000000000000000000000000000000000090
:10502000507265686561743A2053657420746865D0
:105030002074656D7065726174757265206F66208D
:10504000746865206E6F7A7A6C65206F7220626575
:105050006400000000000000000000005072656362
:10506000616C656E7461723A20616A757374652053
:105070006C612074656D7065726174757261206415
:1050800065206C6120626F7175696C6C612079209C
:105090006C61000000000000200000000000000023
:1050A0000000000000000000000000000000000000
:1050B00000000000000000000000000000000000F0
:1050C000000000000000000000007265747261635F
:1050D00074207468652066696C616D656E742E005D
:1050E00000000000000000000000000000000000C0
:1050F0000000000000000000000000007920726540
:105100007472616520656C2066696C616D656E7492
:105110006F2E0000000000000000000000000000F2
:105120000000000000000000000000000000CAD6DF
:10513000B6AFBCD3C8C83A20CAD6B6AFC9E8D6C342
:10514000C5E7CDB7BACDC8C8B4B2B5C4CEC2B6C82B
:10515000B2A2BCD3C8C82E000000000000000000AE
:105160000000000000000000000046696C616D65F1
:105170006E7420526574726163743A204175746F65
:105180006D61746963616C6C79206865617473200A
:10519000746865206E6F7A7A6C6520616E640000B9
:1051A00000000000000053616C69646120646520A8
:1051B00066696C616D656E746F3A2063616C6965D8
:1051C0006E7461206175746F6DA8A2746963616DFE
:1051D000656E7465206C6120626F7175696C6C61BD
:1051E0000000D7D4B6AFCDCBCBBF3A20D7D4B6AF23
:1051F000BCD3C8C8C5E7CDB7B2A2CDCBB3F6C1CF3B
:10520000CBBF2E00000000000000000000000000E6
:1052100000000000000000000000000000006C6FB3
:105220006164696E67206F66207468652066696CCA
:10523000616D656E742E000000000000000000002B
:10524000000000000000000000000000000000005E
:1052500000000000000000000000626F7175696CC2
:105260006C6120792063617267612064656C2066DF
:10527000696C616D656E746F2E00000000000000A7
:10528000000000000000000000000000000000001E
:10529000000000000000D7D4B6AFBDF8CBBF3A2065
:1052A000D7D4B6AFBCD3C8C8C5E7CDB7B2A2D4D89F
:1052B000C8EBC1CFCBBF2E000000000000000000F3
:1052C00000000000000000000000000000000000DE
:1052D000000046696C616D656E7420466565643AD0
:1052E000204175746F6D61746963206865617469CC
:1052F0006E67206F6620746865206E6F7A7A6C65C1
:1053000020616E6400000000000000000000456E97
:1053100074726164612064652066696C616D656E9C
:10532000746F3A2063616C656E74616D69656E744B
:105330006F206175746F6DA8A27469636F206465D6
:10534000206C61000000000000002020B7B5BBD831
:105350000000000020204261636B20000000205606
:105360006F6C766572200000B0EFD6FA00004865D9
:105370006C7000004179756461004D383400CBF9E0
:10538000D3D0B5E7BBFACAE4B3F6D2D1B9D8B1D518
:10539000000000000000000000000000000000000D
:1053A000000000000000000000000000416C6C20C4
:1053B0006D6F746F72206F75747075747320617285
:1053C00065206F66662E00000000000000000000EF
:1053D00000000000000000000000546F64617320B2
:1053E0006C61732073616C696461732064656C2007
:1053F0006D6F746F7220657374A8A26E2061706106
:1054000067616461732E0000257568253032756D03
:10541000002530327568253032756D00257564259C
:1054200030327568253032756D00CAB9D3C3C1CF2B
:10543000CBBF3A0000000000000000000000005553
:1054400073696E672046696C616D656E743A000021
:10545000000000005574696C697A616E646F2066A3
:10546000696C616D656E746F00B4F2D3A1CAB1BC92
:10547000E43A0000000000000000000000000050BE
:1054800072696E742054696D653A00000000000076
:1054900000000000005469656D706F20646520692C
:1054A0006D7072657369A8AE6E3A00CEC4BCFEC35F
:1054B000FB3A0000000000000000000000000000B7
:1054C0000046696C656E616D653A00000000000081
:1054D000000000000000004E6F6D62726520646580
:1054E0006C206172636869766F3A0000002020D4F6
:1054F000D9B4CEB4F2D3A100000000000000000037
:105500000000205072696E7420416761696E00006E
:1055100000000000000000496D7072696D69722022
:105520006465206E7565766F000000002020CDCB8D
:10553000B3F60000000020205175697400000000DF
:10554000202044656A6172000000B4F2D3A1CDEA64
:10555000B3C90000000000000000000000000000CF
:105560005072696E7420436F6D706C657465640071
:10557000000000000000496D7072696D697220437F
:105580006F6D706C657461646F0000005BCAD3C698
:10559000B55DB8FCBBBBC1CFCBBFBCECB2E2B4AB1A
:1055A000B8D0C6F7000000000000000000000000B6
:1055B00000000000000000005B566964656F5D52EA
:1055C00065706C616365207468652072756E6F75B7
:1055D000742073656E736F7200000000000000009D
:1055E000000000005B56A8AA64656F5D5265656D9A
:1055F000706C61636520656C2073656E736F7220DB
:105600006465206465737669616369A8AE6E0000A5
:105610005BCAD3C6B55DB8FCBBBB58CFDFCAF800C8
:1056200000000000000000000000000000005B56C9
:105630006964656F5D5265706C616365207468654F
:105640002058204361626C65000000005B56A8AAE8
:1056500064656F5D5265656D706C61636520656C36
:10566000206361626C65205800005BCAD3C6B55DDB
:10567000B8FCBBBBC8C8B4B200000000000000000A
:1056800000000000000000000000000000005B5669
:105690006964656F5D5265706C61636520746865EF
:1056A00020686F7420626564000000000000000044
:1056B00000005B56A8AA64656F5D5265656D706CED
:1056C000617A6172206C612063616D612063616C3D
:1056D00069656E7465005BCAD3C6B55DB8FCBBBBBB
:1056E000BDD3BDFCBFAAB9D8000000000000000077
:1056F00000000000000000000000000000000000AA
:105700000000000000005B566964656F5D526570C3
:105710006C616365207468652070726F78696D696B
:1057200074792073776974636800000000000000DA
:105730000000000000005B56A8AA64656F5D52651A
:10574000656D706C61636520656C20696E7465724F
:10575000727570746F722064652070726F78696DF5
:105760006964616400005BCAD3C6B55DB8FCBBBBAD
:10577000BCB7B3F6C6F7D7E9BCFE000000000000D6
:105780000000000000000000000000005B5669649B
:10579000656F5D5265706C61636520746865206536
:1057A00078747275646572206D6F64756C65000045
:1057B00000005B56A8AA64656F5D5265656D706CEC
:1057C00061636520656C206DA8AE64756C6F2065A3
:1057D00078747275736F72002020C9CFD2BBD2B3B8
:1057E0002020200000002050726576696F757320BC
:1057F0002000000020416E746572696F72202000E5
:1058000000005BCAD3C6B55DB8FCBBBBC5E7CDB76E
:10581000D7E9BCFE0000000000000000000000000E
:10582000000000000000000000005B566964656F26
:105830005D5265706C6163656D656E74206E6F7A24
:105840007A6C65206D6F64756C6500000000000067
:1058500000005B56A8AA64656F5D4DA8AE64756CC8
:105860006F20646520626F7175696C6C612064657E
:1058700020726570756573746F005BCAD3C6B55DC1
:10588000C5E7D7ECB8FCBBBBD3EBCAE8CDA800009A
:105890000000000000000000000000000000000008
:1058A00000000000000000005B566964656F5D4EFB
:1058B0006F7A7A6C65207265706C6163656D656E78
:1058C0007420616E6420756E636C6F670000000069
:1058D0000000000000005B56A8AA64656F5D526579
:1058E000656D706C617A6F20646520626F71756997
:1058F0006C6C61207920646573617461736361729B
:1059000000000000C6BDCCA8CEDEB7A8BCD3C8C876
:105910000000000000000000000000000000000087
:105920000000000000000000000000005468652036
:105930006265642063616E6E6F74206265206865C5
:1059400061746564000000000000000000000000B9
:10595000000000004C612063616D61206E6F207358
:10596000652070756564652063616C656E74617235
:10597000000000000000000000000000C5E7CDB7F7
:10598000CEDEB7A8BCD3C8C80000000000000000ED
:105990000000000000000000000000000000000007
:1059A00000000000546865206E6F7A7A6C65206391
:1059B000616E6E6F74206265206865617465640055
:1059C0000000000000000000000000004C612062A8
:1059D0006F7175696C6C61206E6F207365207075D6
:1059E0006564652063616C656E746172000000001F
:1059F000000000002020CFC2D2BBD2B32020200064
:105A0000000020204E657874202020202000000017
:105A1000205369677569656E746520000000200079
:105A2000D7D4B6AFB5F7C6BDCAA7B0DC000000003A
:105A30000000000000000000000000000000000066
:105A400000000000000000004175746F6D61746912
:105A500063206C6576656C696E67206661696C753C
:105A6000726500000000000000000000000000005F
:105A700046616C6C6F206465206E6976656C61634D
:105A800069A8AE6E206175746F6DA8A274696361B8
:105A90000000000000000000C5E7CDB7D2C6B6AFD9
:105AA000CAB1D7B2BBFAC9ED000000000000000087
:105AB000000000000000546865206E6F7A7A6C6503
:105AC000206869747320746865206672616D650072
:105AD000000000004C6120626F7175696C6C612080
